{
  "contractName": "AdInteractionContract",
  "abi": [
    {
      "inputs": [
        {
          "internalType": "uint256",
          "name": "_skipAdFee",
          "type": "uint256"
        }
      ],
      "stateMutability": "nonpayable",
      "type": "constructor"
    },
    {
      "anonymous": false,
      "inputs": [
        {
          "indexed": true,
          "internalType": "address",
          "name": "viewer",
          "type": "address"
        }
      ],
      "name": "AdSkipped",
      "type": "event"
    },
    {
      "anonymous": false,
      "inputs": [
        {
          "indexed": true,
          "internalType": "address",
          "name": "viewer",
          "type": "address"
        }
      ],
      "name": "AdWatched",
      "type": "event"
    },
    {
      "inputs": [
        {
          "internalType": "address",
          "name": "",
          "type": "address"
        }
      ],
      "name": "hasWatchedAd",
      "outputs": [
        {
          "internalType": "bool",
          "name": "",
          "type": "bool"
        }
      ],
      "stateMutability": "view",
      "type": "function",
      "constant": true
    },
    {
      "inputs": [],
      "name": "skipAdFee",
      "outputs": [
        {
          "internalType": "uint256",
          "name": "",
          "type": "uint256"
        }
      ],
      "stateMutability": "view",
      "type": "function",
      "constant": true
    },
    {
      "inputs": [],
      "name": "watchAd",
      "outputs": [],
      "stateMutability": "nonpayable",
      "type": "function"
    },
    {
      "inputs": [],
      "name": "skipAd",
      "outputs": [],
      "stateMutability": "payable",
      "type": "function",
      "payable": true
    }
  ],
  "bytecode": "0x608060405234801561001057600080fd5b5060405161045d38038061045d83398181016040528101906100329190610054565b806001819055505061009e565b60008151905061004e81610087565b92915050565b60006020828403121561006657600080fd5b60006100748482850161003f565b91505092915050565b6000819050919050565b6100908161007d565b811461009b57600080fd5b50565b6103b0806100ad6000396000f3fe60806040526004361061003f5760003560e01c80634c302f0414610044578063683168f11461005b57806368ef0752146100985780638fd44695146100c3575b600080fd5b34801561005057600080fd5b506100596100cd565b005b34801561006757600080fd5b50610082600480360381019061007d919061022d565b610169565b60405161008f91906102b4565b60405180910390f35b3480156100a457600080fd5b506100ad610189565b6040516100ba91906102ef565b60405180910390f35b6100cb61018f565b005b60016000803373ffffffffffffffffffffffffffffffffffffffff1673ffffffffffffffffffffffffffffffffffffffff16815260200190815260200160002060006101000a81548160ff0219169083151502179055503373ffffffffffffffffffffffffffffffffffffffff167f34f3ec6eceb90b454086f5a93e77f853eb369987285fa172cdb6a4de67a1f8b360405160405180910390a2565b60006020528060005260406000206000915054906101000a900460ff1681565b60015481565b60015434146101d3576040517f08c379a00000000000000000000000000000000000000000000000000000000081526004016101ca906102cf565b60405180910390fd5b3373ffffffffffffffffffffffffffffffffffffffff167f73e9f636434750c3a60e6b37490cbc0c5063c7c98dd3ddf7831848d92a63630760405160405180910390a2565b60008135905061022781610363565b92915050565b60006020828403121561023f57600080fd5b600061024d84828501610218565b91505092915050565b61025f8161032d565b82525050565b600061027260168361030a565b91507f466565206e6f74206d657420746f20736b6970206164000000000000000000006000830152602082019050919050565b6102ae81610359565b82525050565b60006020820190506102c96000830184610256565b92915050565b600060208201905081810360008301526102e881610265565b9050919050565b600060208201905061030460008301846102a5565b92915050565b600082825260208201905092915050565b600061032682610339565b9050919050565b60008115159050919050565b600073ffffffffffffffffffffffffffffffffffffffff82169050919050565b6000819050919050565b61036c8161031b565b811461037757600080fd5b5056fea264697066735822122004b5fd99bb388cd23bbc19544c1c2328fc22bb75322bd28fceb9941268cf636264736f6c63430008000033",
  "immutableReferences": {},
  "source": "// SPDX-License-Identifier: MIT\r\npragma solidity ^0.8.0;\r\n\r\ncontract AdInteractionContract {\r\n    mapping(address => bool) public hasWatchedAd;\r\n\r\n    event AdWatched(address indexed viewer);\r\n    event AdSkipped(address indexed viewer);\r\n\r\n    uint public skipAdFee;\r\n\r\n    constructor(uint _skipAdFee) {\r\n    skipAdFee = _skipAdFee; // Initialize the skip ad fee\r\n    }\r\n\r\n    function watchAd() public {\r\n        hasWatchedAd[msg.sender] = true;\r\n        emit AdWatched(msg.sender);\r\n    }\r\n\r\n    function skipAd() public payable {\r\n        require(msg.value == skipAdFee, \"Fee not met to skip ad\");\r\n        // Additional logic for what happens when ad is skipped\r\n        emit AdSkipped(msg.sender);\r\n    }\r\n\r\n\r\n}\r\n",
  "sourcePath": "C:\\Users\\marti\\Documents\\projects\\web-3-youtube\\contracts\\AdInteractionContract.sol",
  "compiler": {
    "name": "solc",
    "version": "0.8.0+commit.c7dfd78e.Emscripten.clang"
  },
  "schemaVersion": "3.4.16",
  "updatedAt": "2024-03-28T09:10:50.556Z",
  "networkType": "ethereum",
  "devdoc": {
    "kind": "dev",
    "methods": {},
    "version": 1
  },
  "userdoc": {
    "kind": "user",
    "methods": {},
    "version": 1
  }
}