{
  "contractName": "RewardsContract",
  "abi": [
    {
      "inputs": [
        {
          "internalType": "address",
          "name": "",
          "type": "address"
        }
      ],
      "name": "rewards",
      "outputs": [
        {
          "internalType": "uint256",
          "name": "",
          "type": "uint256"
        }
      ],
      "stateMutability": "view",
      "type": "function"
    },
    {
      "inputs": [
        {
          "internalType": "address",
          "name": "user",
          "type": "address"
        }
      ],
      "name": "rewardForWatchingAd",
      "outputs": [],
      "stateMutability": "nonpayable",
      "type": "function"
    },
    {
      "inputs": [],
      "name": "claimReward",
      "outputs": [],
      "stateMutability": "nonpayable",
      "type": "function"
    }
  ],
  "bytecode": "0x608060405234801561001057600080fd5b50610425806100206000396000f3fe608060405234801561001057600080fd5b50600436106100415760003560e01c80630700037d1461004657806368a9bd7114610076578063b88a802f14610092575b600080fd5b610060600480360381019061005b9190610253565b61009c565b60405161006d91906102eb565b60405180910390f35b610090600480360381019061008b9190610253565b6100b4565b005b61009a61011a565b005b60006020528060005260406000206000915090505481565b60006100bf8261022e565b9050806000808473ffffffffffffffffffffffffffffffffffffffff1673ffffffffffffffffffffffffffffffffffffffff168152602001908152602001600020600082825461010f9190610317565b925050819055505050565b60008060003373ffffffffffffffffffffffffffffffffffffffff1673ffffffffffffffffffffffffffffffffffffffff168152602001908152602001600020549050600081116101a0576040517f08c379a0000000000000000000000000000000000000000000000000000000008152600401610197906102cb565b60405180910390fd5b3373ffffffffffffffffffffffffffffffffffffffff166108fc829081150290604051600060405180830381858888f193505050501580156101e6573d6000803e3d6000fd5b5060008060003373ffffffffffffffffffffffffffffffffffffffff1673ffffffffffffffffffffffffffffffffffffffff1681526020019081526020016000208190555050565b600080600a905080915050919050565b60008135905061024d816103d8565b92915050565b60006020828403121561026557600080fd5b60006102738482850161023e565b91505092915050565b6000610289601383610306565b91507f4e6f207265776172647320746f20636c61696d000000000000000000000000006000830152602082019050919050565b6102c58161039f565b82525050565b600060208201905081810360008301526102e48161027c565b9050919050565b600060208201905061030060008301846102bc565b92915050565b600082825260208201905092915050565b60006103228261039f565b915061032d8361039f565b9250827fffffffffffffffffffffffffffffffffffffffffffffffffffffffffffffffff03821115610362576103616103a9565b5b828201905092915050565b60006103788261037f565b9050919050565b600073ffffffffffffffffffffffffffffffffffffffff82169050919050565b6000819050919050565b7f4e487b7100000000000000000000000000000000000000000000000000000000600052601160045260246000fd5b6103e18161036d565b81146103ec57600080fd5b5056fea26469706673582212202966bb0ea5657fd8e0babeb686376979c985f5d4ed7bc9c5d702c2e9a8dbc79a64736f6c63430008000033",
  "immutableReferences": {},
  "source": "// SPDX-License-Identifier: MIT\r\npragma solidity ^0.8.0;\r\n\r\ncontract RewardsContract {\r\n    mapping(address => uint256) public rewards;\r\n\r\n    function rewardForWatchingAd(address user) public {\r\n        uint256 rewardAmount = calculateAdReward(user);\r\n        rewards[user] += rewardAmount;\r\n    }\r\n\r\n    function calculateAdReward(address user) internal view returns (uint256) {\r\n        // Placeholder for actual reward calculation logic\r\n        uint256 rewardValue = 10; // Example fixed value\r\n        return rewardValue;\r\n    }\r\n\r\n    function claimReward() public {\r\n        uint256 reward = rewards[msg.sender];\r\n        require(reward > 0, \"No rewards to claim\");\r\n        payable(msg.sender).transfer(reward);\r\n        rewards[msg.sender] = 0;\r\n    }\r\n}\r\n",
  "sourcePath": "C:\\Users\\marti\\Documents\\projects\\web-3-youtube\\contracts\\RewardsContract.sol",
  "compiler": {
    "name": "solc",
    "version": "0.8.0+commit.c7dfd78e.Emscripten.clang"
  },
  "schemaVersion": "3.4.16",
  "updatedAt": "2024-03-26T13:20:45.211Z",
  "devdoc": {
    "kind": "dev",
    "methods": {},
    "version": 1
  },
  "userdoc": {
    "kind": "user",
    "methods": {},
    "version": 1
  }
}