{
  "contractName": "RewardsContract",
  "abi": [
    {
      "inputs": [
        {
          "internalType": "address",
          "name": "",
          "type": "address"
        }
      ],
      "name": "rewards",
      "outputs": [
        {
          "internalType": "uint256",
          "name": "",
          "type": "uint256"
        }
      ],
      "stateMutability": "view",
      "type": "function",
      "constant": true
    },
    {
      "inputs": [
        {
          "internalType": "address",
          "name": "user",
          "type": "address"
        }
      ],
      "name": "rewardForWatchingAd",
      "outputs": [],
      "stateMutability": "nonpayable",
      "type": "function"
    },
    {
      "inputs": [],
      "name": "claimReward",
      "outputs": [],
      "stateMutability": "nonpayable",
      "type": "function"
    }
  ],
  "bytecode": "0x608060405234801561001057600080fd5b50610422806100206000396000f3fe608060405234801561001057600080fd5b50600436106100415760003560e01c80630700037d1461004657806368a9bd7114610076578063b88a802f14610092575b600080fd5b610060600480360381019061005b9190610250565b61009c565b60405161006d91906102e8565b60405180910390f35b610090600480360381019061008b9190610250565b6100b4565b005b61009a610119565b005b60006020528060005260406000206000915090505481565b60006100be61022d565b9050806000808473ffffffffffffffffffffffffffffffffffffffff1673ffffffffffffffffffffffffffffffffffffffff168152602001908152602001600020600082825461010e9190610314565b925050819055505050565b60008060003373ffffffffffffffffffffffffffffffffffffffff1673ffffffffffffffffffffffffffffffffffffffff1681526020019081526020016000205490506000811161019f576040517f08c379a0000000000000000000000000000000000000000000000000000000008152600401610196906102c8565b60405180910390fd5b3373ffffffffffffffffffffffffffffffffffffffff166108fc829081150290604051600060405180830381858888f193505050501580156101e5573d6000803e3d6000fd5b5060008060003373ffffffffffffffffffffffffffffffffffffffff1673ffffffffffffffffffffffffffffffffffffffff1681526020019081526020016000208190555050565b600080600a90508091505090565b60008135905061024a816103d5565b92915050565b60006020828403121561026257600080fd5b60006102708482850161023b565b91505092915050565b6000610286601383610303565b91507f4e6f207265776172647320746f20636c61696d000000000000000000000000006000830152602082019050919050565b6102c28161039c565b82525050565b600060208201905081810360008301526102e181610279565b9050919050565b60006020820190506102fd60008301846102b9565b92915050565b600082825260208201905092915050565b600061031f8261039c565b915061032a8361039c565b9250827fffffffffffffffffffffffffffffffffffffffffffffffffffffffffffffffff0382111561035f5761035e6103a6565b5b828201905092915050565b60006103758261037c565b9050919050565b600073ffffffffffffffffffffffffffffffffffffffff82169050919050565b6000819050919050565b7f4e487b7100000000000000000000000000000000000000000000000000000000600052601160045260246000fd5b6103de8161036a565b81146103e957600080fd5b5056fea2646970667358221220adcec30a00c14ff6850ea4f47e5181be64514c13aea49e9277121d9371815a3664736f6c63430008000033",
  "immutableReferences": {},
  "source": "// SPDX-License-Identifier: MIT\r\npragma solidity ^0.8.0;\r\n\r\ncontract RewardsContract {\r\n    mapping(address => uint256) public rewards;\r\n\r\n    function rewardForWatchingAd(address user) public {\r\n        uint256 rewardAmount = calculateAdReward();\r\n        rewards[user] += rewardAmount;\r\n    }\r\n\r\n    function calculateAdReward() internal pure returns (uint256) {\r\n        uint256 rewardValue = 10; // Example fixed value\r\n        return rewardValue;\r\n    }\r\n\r\n    function claimReward() public {\r\n        uint256 reward = rewards[msg.sender];\r\n        require(reward > 0, \"No rewards to claim\");\r\n        payable(msg.sender).transfer(reward);\r\n        rewards[msg.sender] = 0;\r\n    }\r\n}\r\n",
  "sourcePath": "C:\\Users\\marti\\Documents\\projects\\web-3-youtube\\contracts\\RewardsContract.sol",
  "compiler": {
    "name": "solc",
    "version": "0.8.0+commit.c7dfd78e.Emscripten.clang"
  },
  "schemaVersion": "3.4.16",
  "updatedAt": "2024-03-28T09:10:50.560Z",
  "networkType": "ethereum",
  "devdoc": {
    "kind": "dev",
    "methods": {},
    "version": 1
  },
  "userdoc": {
    "kind": "user",
    "methods": {},
    "version": 1
  }
}