{
  "contractName": "VideoUploadContract",
  "abi": [
    {
      "anonymous": false,
      "inputs": [
        {
          "indexed": false,
          "internalType": "string",
          "name": "hash",
          "type": "string"
        },
        {
          "indexed": false,
          "internalType": "address",
          "name": "uploader",
          "type": "address"
        },
        {
          "indexed": false,
          "internalType": "string",
          "name": "title",
          "type": "string"
        },
        {
          "indexed": false,
          "internalType": "string",
          "name": "description",
          "type": "string"
        }
      ],
      "name": "VideoUploaded",
      "type": "event"
    },
    {
      "inputs": [
        {
          "internalType": "uint256",
          "name": "",
          "type": "uint256"
        }
      ],
      "name": "videos",
      "outputs": [
        {
          "internalType": "string",
          "name": "hash",
          "type": "string"
        },
        {
          "internalType": "address",
          "name": "uploader",
          "type": "address"
        },
        {
          "internalType": "string",
          "name": "title",
          "type": "string"
        },
        {
          "internalType": "string",
          "name": "description",
          "type": "string"
        }
      ],
      "stateMutability": "view",
      "type": "function",
      "constant": true
    },
    {
      "inputs": [
        {
          "internalType": "string",
          "name": "_hash",
          "type": "string"
        },
        {
          "internalType": "string",
          "name": "_title",
          "type": "string"
        },
        {
          "internalType": "string",
          "name": "_description",
          "type": "string"
        }
      ],
      "name": "uploadVideo",
      "outputs": [],
      "stateMutability": "nonpayable",
      "type": "function"
    }
  ],
  "bytecode": "0x608060405234801561001057600080fd5b50610831806100206000396000f3fe608060405234801561001057600080fd5b50600436106100365760003560e01c80634875e9fd1461003b578063e6821bf514610057575b600080fd5b610055600480360381019061005091906104e6565b61008a565b005b610071600480360381019061006c919061057d565b6101ce565b60405161008194939291906105ee565b60405180910390f35b600060405180608001604052808581526020013373ffffffffffffffffffffffffffffffffffffffff16815260200184815260200183815250908060018154018082558091505060019003906000526020600020906004020160009091909190915060008201518160000190805190602001906101089291906103c6565b5060208201518160010160006101000a81548173ffffffffffffffffffffffffffffffffffffffff021916908373ffffffffffffffffffffffffffffffffffffffff160217905550604082015181600201908051906020019061016c9291906103c6565b5060608201518160030190805190602001906101899291906103c6565b5050507ff51aab1172622682153b845cfa0ea7cc7bd40f1c6734159b174f654973dc254f833384846040516101c194939291906105ee565b60405180910390a1505050565b600081815481106101de57600080fd5b906000526020600020906004020160009150905080600001805461020190610743565b80601f016020809104026020016040519081016040528092919081815260200182805461022d90610743565b801561027a5780601f1061024f5761010080835404028352916020019161027a565b820191906000526020600020905b81548152906001019060200180831161025d57829003601f168201915b5050505050908060010160009054906101000a900473ffffffffffffffffffffffffffffffffffffffff16908060020180546102b590610743565b80601f01602080910402602001604051908101604052809291908181526020018280546102e190610743565b801561032e5780601f106103035761010080835404028352916020019161032e565b820191906000526020600020905b81548152906001019060200180831161031157829003601f168201915b50505050509080600301805461034390610743565b80601f016020809104026020016040519081016040528092919081815260200182805461036f90610743565b80156103bc5780601f10610391576101008083540402835291602001916103bc565b820191906000526020600020905b81548152906001019060200180831161039f57829003601f168201915b5050505050905084565b8280546103d290610743565b90600052602060002090601f0160209004810192826103f4576000855561043b565b82601f1061040d57805160ff191683800117855561043b565b8280016001018555821561043b579182015b8281111561043a57825182559160200191906001019061041f565b5b509050610448919061044c565b5090565b5b8082111561046557600081600090555060010161044d565b5090565b600061047c61047784610679565b610648565b90508281526020810184848401111561049457600080fd5b61049f848285610701565b509392505050565b600082601f8301126104b857600080fd5b81356104c8848260208601610469565b91505092915050565b6000813590506104e0816107e4565b92915050565b6000806000606084860312156104fb57600080fd5b600084013567ffffffffffffffff81111561051557600080fd5b610521868287016104a7565b935050602084013567ffffffffffffffff81111561053e57600080fd5b61054a868287016104a7565b925050604084013567ffffffffffffffff81111561056757600080fd5b610573868287016104a7565b9150509250925092565b60006020828403121561058f57600080fd5b600061059d848285016104d1565b91505092915050565b6105af816106c5565b82525050565b60006105c0826106a9565b6105ca81856106b4565b93506105da818560208601610710565b6105e3816107d3565b840191505092915050565b6000608082019050818103600083015261060881876105b5565b905061061760208301866105a6565b818103604083015261062981856105b5565b9050818103606083015261063d81846105b5565b905095945050505050565b6000604051905081810181811067ffffffffffffffff8211171561066f5761066e6107a4565b5b8060405250919050565b600067ffffffffffffffff821115610694576106936107a4565b5b601f19601f8301169050602081019050919050565b600081519050919050565b600082825260208201905092915050565b60006106d0826106d7565b9050919050565b600073ffffffffffffffffffffffffffffffffffffffff82169050919050565b6000819050919050565b82818337600083830152505050565b60005b8381101561072e578082015181840152602081019050610713565b8381111561073d576000848401525b50505050565b6000600282049050600182168061075b57607f821691505b6020821081141561076f5761076e610775565b5b50919050565b7f4e487b7100000000000000000000000000000000000000000000000000000000600052602260045260246000fd5b7f4e487b7100000000000000000000000000000000000000000000000000000000600052604160045260246000fd5b6000601f19601f8301169050919050565b6107ed816106f7565b81146107f857600080fd5b5056fea26469706673582212205d30e8cbd07809550dd87eadb8a031f63760d66eb3980766f0c717b599767f5364736f6c63430008000033",
  "immutableReferences": {},
  "source": "// SPDX-License-Identifier: MIT\r\npragma solidity ^0.8.0;\r\n\r\ncontract VideoUploadContract {\r\n    struct Video {\r\n        string hash; // IPFS hash\r\n        address uploader;\r\n        string title;\r\n        string description;\r\n    }\r\n\r\n    Video[] public videos;\r\n\r\n    event VideoUploaded(string hash, address uploader, string title, string description);\r\n\r\n    function uploadVideo(string memory _hash, string memory _title, string memory _description) public {\r\n        videos.push(Video(_hash, msg.sender, _title, _description));\r\n        emit VideoUploaded(_hash, msg.sender, _title, _description);\r\n    }\r\n}\r\n",
  "sourcePath": "C:\\Users\\marti\\Documents\\projects\\web-3-youtube\\contracts\\VideoUploadContract.sol",
  "compiler": {
    "name": "solc",
    "version": "0.8.0+commit.c7dfd78e.Emscripten.clang"
  },
  "schemaVersion": "3.4.16",
  "updatedAt": "2024-03-28T09:10:50.565Z",
  "networkType": "ethereum",
  "devdoc": {
    "kind": "dev",
    "methods": {},
    "version": 1
  },
  "userdoc": {
    "kind": "user",
    "methods": {},
    "version": 1
  }
}